{
  "contractName": "InteractionTracking",
  "abi": [
    {
      "anonymous": false,
      "inputs": [
        {
          "indexed": false,
          "internalType": "string",
          "name": "recordId",
          "type": "string"
        },
        {
          "indexed": false,
          "internalType": "address",
          "name": "patient",
          "type": "address"
        },
        {
          "indexed": false,
          "internalType": "string",
          "name": "action",
          "type": "string"
        }
      ],
      "name": "InteractionLogged",
      "type": "event"
    },
    {
      "inputs": [
        {
          "internalType": "uint256",
          "name": "",
          "type": "uint256"
        }
      ],
      "name": "interactions",
      "outputs": [
        {
          "internalType": "string",
          "name": "recordId",
          "type": "string"
        },
        {
          "internalType": "address",
          "name": "patient",
          "type": "address"
        },
        {
          "internalType": "string",
          "name": "action",
          "type": "string"
        }
      ],
      "stateMutability": "view",
      "type": "function",
      "constant": true
    },
    {
      "inputs": [
        {
          "internalType": "string",
          "name": "recordId",
          "type": "string"
        },
        {
          "internalType": "string",
          "name": "action",
          "type": "string"
        }
      ],
      "name": "logInteraction",
      "outputs": [],
      "stateMutability": "nonpayable",
      "type": "function"
    },
    {
      "inputs": [],
      "name": "getInteractions",
      "outputs": [
        {
          "components": [
            {
              "internalType": "string",
              "name": "recordId",
              "type": "string"
            },
            {
              "internalType": "address",
              "name": "patient",
              "type": "address"
            },
            {
              "internalType": "string",
              "name": "action",
              "type": "string"
            }
          ],
          "internalType": "struct InteractionTracking.Interaction[]",
          "name": "",
          "type": "tuple[]"
        }
      ],
      "stateMutability": "view",
      "type": "function",
      "constant": true
    }
  ],
  "bytecode": "0x608060405234801561001057600080fd5b506107c3806100206000396000f3fe608060405234801561001057600080fd5b50600436106100415760003560e01c80630ba460ff14610046578063dabe17bb14610071578063dbe8c6db14610086575b600080fd5b6100596100543660046105fe565b61009b565b604051610068939291906106fe565b60405180910390f35b61008461007f36600461059a565b6101f4565b005b61008e6102da565b6040516100689190610664565b600081815481106100ab57600080fd5b90600052602060002090600302016000915090508060000180546100ce9061073c565b80601f01602080910402602001604051908101604052809291908181526020018280546100fa9061073c565b80156101475780601f1061011c57610100808354040283529160200191610147565b820191906000526020600020905b81548152906001019060200180831161012a57829003601f168201915b505050600184015460028501805494956001600160a01b039092169491935091506101719061073c565b80601f016020809104026020016040519081016040528092919081815260200182805461019d9061073c565b80156101ea5780601f106101bf576101008083540402835291602001916101ea565b820191906000526020600020905b8154815290600101906020018083116101cd57829003601f168201915b5050505050905083565b60408051606081018252838152336020808301919091529181018390526000805460018101825590805281518051929360039092027f290decd9548b62a8d60345a988386fc84ba6bc95484008f6362f93160ef3e56301926102599284920190610474565b506020828101516001830180546001600160a01b0319166001600160a01b03909216919091179055604083015180516102989260028501920190610474565b5050507f8a6e974041fea609cda91b2295e34678e82547324c1899542080013c88cf7aa08233836040516102ce939291906106fe565b60405180910390a15050565b60606000805480602002602001604051908101604052809291908181526020016000905b8282101561046b57838290600052602060002090600302016040518060600160405290816000820180546103319061073c565b80601f016020809104026020016040519081016040528092919081815260200182805461035d9061073c565b80156103aa5780601f1061037f576101008083540402835291602001916103aa565b820191906000526020600020905b81548152906001019060200180831161038d57829003601f168201915b505050918352505060018201546001600160a01b031660208201526002820180546040909201916103da9061073c565b80601f01602080910402602001604051908101604052809291908181526020018280546104069061073c565b80156104535780601f1061042857610100808354040283529160200191610453565b820191906000526020600020905b81548152906001019060200180831161043657829003601f168201915b505050505081525050815260200190600101906102fe565b50505050905090565b8280546104809061073c565b90600052602060002090601f0160209004810192826104a257600085556104e8565b82601f106104bb57805160ff19168380011785556104e8565b828001600101855582156104e8579182015b828111156104e85782518255916020019190600101906104cd565b506104f49291506104f8565b5090565b5b808211156104f457600081556001016104f9565b600082601f83011261051e57600080fd5b813567ffffffffffffffff8082111561053957610539610777565b604051601f8301601f19908116603f0116810190828211818310171561056157610561610777565b8160405283815286602085880101111561057a57600080fd5b836020870160208301376000602085830101528094505050505092915050565b600080604083850312156105ad57600080fd5b823567ffffffffffffffff808211156105c557600080fd5b6105d18683870161050d565b935060208501359150808211156105e757600080fd5b506105f48582860161050d565b9150509250929050565b60006020828403121561061057600080fd5b5035919050565b6000815180845260005b8181101561063d57602081850181015186830182015201610621565b8181111561064f576000602083870101525b50601f01601f19169290920160200192915050565b60006020808301818452808551808352604092508286019150828160051b87010184880160005b838110156106f057603f198984030185528151606081518186526106b182870182610617565b838b01516001600160a01b0316878c0152928901518684038a8801529291506106dc90508183610617565b96890196945050509086019060010161068b565b509098975050505050505050565b6060815260006107116060830186610617565b6001600160a01b038516602084015282810360408401526107328185610617565b9695505050505050565b600181811c9082168061075057607f821691505b6020821081141561077157634e487b7160e01b600052602260045260246000fd5b50919050565b634e487b7160e01b600052604160045260246000fdfea264697066735822122085856f4caab8f0d196afe952a3135aa47566020f2fc5a5eb9907b3c81170e15864736f6c63430008070033",
  "immutableReferences": {},
  "source": "// SPDX-License-Identifier: MIT\r\npragma solidity ^0.8.0;\r\n\r\ncontract InteractionTracking {\r\n    struct Interaction {\r\n        string recordId;\r\n        address patient;\r\n        string action; // \"Accepted\" or \"Rejected\"\r\n    }\r\n\r\n    Interaction[] public interactions;\r\n\r\n    event InteractionLogged(string recordId, address patient, string action);\r\n\r\n    function logInteraction(string memory recordId, string memory action) public {\r\n        interactions.push(Interaction(recordId, msg.sender, action));\r\n        emit InteractionLogged(recordId, msg.sender, action);\r\n    }\r\n\r\n    function getInteractions() public view returns (Interaction[] memory) {\r\n        return interactions;\r\n    }\r\n}\r\n",
  "sourcePath": "C:\\Users\\kriti\\my-blockchain\\smart contracts\\contracts\\InteractionTraqcking.sol",
  "compiler": {
    "name": "solc",
    "version": "0.8.7+commit.e28d00a7.Emscripten.clang"
  },
  "schemaVersion": "3.4.16",
  "updatedAt": "2024-12-11T03:30:53.371Z",
  "networkType": "ethereum",
  "devdoc": {
    "kind": "dev",
    "methods": {},
    "version": 1
  },
  "userdoc": {
    "kind": "user",
    "methods": {},
    "version": 1
  }
}