{
  "contractName": "InteractionTracking",
  "abi": [
    {
      "anonymous": false,
      "inputs": [
        {
          "indexed": false,
          "internalType": "string",
          "name": "recordId",
          "type": "string"
        },
        {
          "indexed": false,
          "internalType": "address",
          "name": "patient",
          "type": "address"
        },
        {
          "indexed": false,
          "internalType": "string",
          "name": "action",
          "type": "string"
        }
      ],
      "name": "InteractionLogged",
      "type": "event"
    },
    {
      "inputs": [
        {
          "internalType": "uint256",
          "name": "",
          "type": "uint256"
        }
      ],
      "name": "interactions",
      "outputs": [
        {
          "internalType": "string",
          "name": "recordId",
          "type": "string"
        },
        {
          "internalType": "address",
          "name": "patient",
          "type": "address"
        },
        {
          "internalType": "string",
          "name": "action",
          "type": "string"
        }
      ],
      "stateMutability": "view",
      "type": "function"
    },
    {
      "inputs": [
        {
          "internalType": "string",
          "name": "recordId",
          "type": "string"
        },
        {
          "internalType": "string",
          "name": "action",
          "type": "string"
        }
      ],
      "name": "logInteraction",
      "outputs": [],
      "stateMutability": "nonpayable",
      "type": "function"
    },
    {
      "inputs": [],
      "name": "getInteractions",
      "outputs": [
        {
          "components": [
            {
              "internalType": "string",
              "name": "recordId",
              "type": "string"
            },
            {
              "internalType": "address",
              "name": "patient",
              "type": "address"
            },
            {
              "internalType": "string",
              "name": "action",
              "type": "string"
            }
          ],
          "internalType": "struct InteractionTracking.Interaction[]",
          "name": "",
          "type": "tuple[]"
        }
      ],
      "stateMutability": "view",
      "type": "function"
    }
  ],
  "bytecode": "0x608060405234801561000f575f80fd5b50610c888061001d5f395ff3fe608060405234801561000f575f80fd5b506004361061003f575f3560e01c80630ba460ff14610043578063dabe17bb14610075578063dbe8c6db14610091575b5f80fd5b61005d6004803603810190610058919061052a565b6100af565b60405161006c9392919061061e565b60405180910390f35b61008f600480360381019061008a919061078d565b61020e565b005b610099610317565b6040516100a69190610969565b60405180910390f35b5f81815481106100bd575f80fd5b905f5260205f2090600302015f91509050805f0180546100dc906109b6565b80601f0160208091040260200160405190810160405280929190818152602001828054610108906109b6565b80156101535780601f1061012a57610100808354040283529160200191610153565b820191905f5260205f20905b81548152906001019060200180831161013657829003601f168201915b505050505090806001015f9054906101000a900473ffffffffffffffffffffffffffffffffffffffff169080600201805461018d906109b6565b80601f01602080910402602001604051908101604052809291908181526020018280546101b9906109b6565b80156102045780601f106101db57610100808354040283529160200191610204565b820191905f5260205f20905b8154815290600101906020018083116101e757829003601f168201915b5050505050905083565b5f60405180606001604052808481526020013373ffffffffffffffffffffffffffffffffffffffff16815260200183815250908060018154018082558091505060019003905f5260205f2090600302015f909190919091505f820151815f0190816102799190610b83565b506020820151816001015f6101000a81548173ffffffffffffffffffffffffffffffffffffffff021916908373ffffffffffffffffffffffffffffffffffffffff16021790555060408201518160020190816102d59190610b83565b5050507f8a6e974041fea609cda91b2295e34678e82547324c1899542080013c88cf7aa082338360405161030b9392919061061e565b60405180910390a15050565b60605f805480602002602001604051908101604052809291908181526020015f905b828210156104dd578382905f5260205f2090600302016040518060600160405290815f82018054610369906109b6565b80601f0160208091040260200160405190810160405280929190818152602001828054610395906109b6565b80156103e05780601f106103b7576101008083540402835291602001916103e0565b820191905f5260205f20905b8154815290600101906020018083116103c357829003601f168201915b50505050508152602001600182015f9054906101000a900473ffffffffffffffffffffffffffffffffffffffff1673ffffffffffffffffffffffffffffffffffffffff1673ffffffffffffffffffffffffffffffffffffffff16815260200160028201805461044e906109b6565b80601f016020809104026020016040519081016040528092919081815260200182805461047a906109b6565b80156104c55780601f1061049c576101008083540402835291602001916104c5565b820191905f5260205f20905b8154815290600101906020018083116104a857829003601f168201915b50505050508152505081526020019060010190610339565b50505050905090565b5f604051905090565b5f80fd5b5f80fd5b5f819050919050565b610509816104f7565b8114610513575f80fd5b50565b5f8135905061052481610500565b92915050565b5f6020828403121561053f5761053e6104ef565b5b5f61054c84828501610516565b91505092915050565b5f81519050919050565b5f82825260208201905092915050565b5f5b8381101561058c578082015181840152602081019050610571565b5f8484015250505050565b5f601f19601f8301169050919050565b5f6105b182610555565b6105bb818561055f565b93506105cb81856020860161056f565b6105d481610597565b840191505092915050565b5f73ffffffffffffffffffffffffffffffffffffffff82169050919050565b5f610608826105df565b9050919050565b610618816105fe565b82525050565b5f6060820190508181035f83015261063681866105a7565b9050610645602083018561060f565b818103604083015261065781846105a7565b9050949350505050565b5f80fd5b5f80fd5b7f4e487b71000000000000000000000000000000000000000000000000000000005f52604160045260245ffd5b61069f82610597565b810181811067ffffffffffffffff821117156106be576106bd610669565b5b80604052505050565b5f6106d06104e6565b90506106dc8282610696565b919050565b5f67ffffffffffffffff8211156106fb576106fa610669565b5b61070482610597565b9050602081019050919050565b828183375f83830152505050565b5f61073161072c846106e1565b6106c7565b90508281526020810184848401111561074d5761074c610665565b5b610758848285610711565b509392505050565b5f82601f83011261077457610773610661565b5b813561078484826020860161071f565b91505092915050565b5f80604083850312156107a3576107a26104ef565b5b5f83013567ffffffffffffffff8111156107c0576107bf6104f3565b5b6107cc85828601610760565b925050602083013567ffffffffffffffff8111156107ed576107ec6104f3565b5b6107f985828601610760565b9150509250929050565b5f81519050919050565b5f82825260208201905092915050565b5f819050602082019050919050565b5f82825260208201905092915050565b5f61084682610555565b610850818561082c565b935061086081856020860161056f565b61086981610597565b840191505092915050565b61087d816105fe565b82525050565b5f606083015f8301518482035f86015261089d828261083c565b91505060208301516108b26020860182610874565b50604083015184820360408601526108ca828261083c565b9150508091505092915050565b5f6108e28383610883565b905092915050565b5f602082019050919050565b5f61090082610803565b61090a818561080d565b93508360208202850161091c8561081d565b805f5b85811015610957578484038952815161093885826108d7565b9450610943836108ea565b925060208a0199505060018101905061091f565b50829750879550505050505092915050565b5f6020820190508181035f83015261098181846108f6565b905092915050565b7f4e487b71000000000000000000000000000000000000000000000000000000005f52602260045260245ffd5b5f60028204905060018216806109cd57607f821691505b6020821081036109e0576109df610989565b5b50919050565b5f819050815f5260205f209050919050565b5f6020601f8301049050919050565b5f82821b905092915050565b5f60088302610a427fffffffffffffffffffffffffffffffffffffffffffffffffffffffffffffffff82610a07565b610a4c8683610a07565b95508019841693508086168417925050509392505050565b5f819050919050565b5f610a87610a82610a7d846104f7565b610a64565b6104f7565b9050919050565b5f819050919050565b610aa083610a6d565b610ab4610aac82610a8e565b848454610a13565b825550505050565b5f90565b610ac8610abc565b610ad3818484610a97565b505050565b5b81811015610af657610aeb5f82610ac0565b600181019050610ad9565b5050565b601f821115610b3b57610b0c816109e6565b610b15846109f8565b81016020851015610b24578190505b610b38610b30856109f8565b830182610ad8565b50505b505050565b5f82821c905092915050565b5f610b5b5f1984600802610b40565b1980831691505092915050565b5f610b738383610b4c565b9150826002028217905092915050565b610b8c82610555565b67ffffffffffffffff811115610ba557610ba4610669565b5b610baf82546109b6565b610bba828285610afa565b5f60209050601f831160018114610beb575f8415610bd9578287015190505b610be38582610b68565b865550610c4a565b601f198416610bf9866109e6565b5f5b82811015610c2057848901518255600182019150602085019450602081019050610bfb565b86831015610c3d5784890151610c39601f891682610b4c565b8355505b6001600288020188555050505b50505050505056fea26469706673582212202fc2cfbe47bdeea13f1aa07e4b6aac7c531f9a379fc54b42697a32dc9d1ee82a64736f6c63430008150033",
  "immutableReferences": {},
  "source": "// SPDX-License-Identifier: MIT\r\npragma solidity ^0.8.0;\r\n\r\ncontract InteractionTracking {\r\n    struct Interaction {\r\n        string recordId;\r\n        address patient;\r\n        string action; // \"Accepted\" or \"Rejected\"\r\n    }\r\n\r\n    Interaction[] public interactions;\r\n\r\n    event InteractionLogged(string recordId, address patient, string action);\r\n\r\n    function logInteraction(string memory recordId, string memory action) public {\r\n        interactions.push(Interaction(recordId, msg.sender, action));\r\n        emit InteractionLogged(recordId, msg.sender, action);\r\n    }\r\n\r\n    function getInteractions() public view returns (Interaction[] memory) {\r\n        return interactions;\r\n    }\r\n}\r\n",
  "sourcePath": "C:\\Users\\kriti\\my-blockchain\\smart contracts\\contracts\\InteractionTraqcking.sol",
  "compiler": {
    "name": "solc",
    "version": "0.8.21+commit.d9974bed.Emscripten.clang"
  },
  "schemaVersion": "3.4.16",
  "updatedAt": "2024-12-11T03:21:10.813Z",
  "devdoc": {
    "kind": "dev",
    "methods": {},
    "version": 1
  },
  "userdoc": {
    "kind": "user",
    "methods": {},
    "version": 1
  }
}