{
  "contractName": "MedicalRecords",
  "abi": [
    {
      "anonymous": false,
      "inputs": [
        {
          "indexed": false,
          "internalType": "string",
          "name": "recordId",
          "type": "string"
        },
        {
          "indexed": false,
          "internalType": "string",
          "name": "ipfsHash",
          "type": "string"
        },
        {
          "indexed": false,
          "internalType": "string",
          "name": "owner",
          "type": "string"
        },
        {
          "indexed": false,
          "internalType": "address",
          "name": "addedBy",
          "type": "address"
        }
      ],
      "name": "RecordAdded",
      "type": "event"
    },
    {
      "inputs": [
        {
          "internalType": "string",
          "name": "",
          "type": "string"
        }
      ],
      "name": "records",
      "outputs": [
        {
          "internalType": "string",
          "name": "recordId",
          "type": "string"
        },
        {
          "internalType": "string",
          "name": "ipfsHash",
          "type": "string"
        },
        {
          "internalType": "string",
          "name": "owner",
          "type": "string"
        },
        {
          "internalType": "address",
          "name": "addedBy",
          "type": "address"
        }
      ],
      "stateMutability": "view",
      "type": "function"
    },
    {
      "inputs": [
        {
          "internalType": "string",
          "name": "recordId",
          "type": "string"
        },
        {
          "internalType": "string",
          "name": "ipfsHash",
          "type": "string"
        },
        {
          "internalType": "string",
          "name": "owner",
          "type": "string"
        }
      ],
      "name": "addRecord",
      "outputs": [],
      "stateMutability": "nonpayable",
      "type": "function"
    },
    {
      "inputs": [
        {
          "internalType": "string",
          "name": "recordId",
          "type": "string"
        }
      ],
      "name": "getRecord",
      "outputs": [
        {
          "components": [
            {
              "internalType": "string",
              "name": "recordId",
              "type": "string"
            },
            {
              "internalType": "string",
              "name": "ipfsHash",
              "type": "string"
            },
            {
              "internalType": "string",
              "name": "owner",
              "type": "string"
            },
            {
              "internalType": "address",
              "name": "addedBy",
              "type": "address"
            }
          ],
          "internalType": "struct MedicalRecords.Record",
          "name": "",
          "type": "tuple"
        }
      ],
      "stateMutability": "view",
      "type": "function"
    }
  ],
  "bytecode": "0x608060405234801561000f575f80fd5b50610f7d8061001d5f395ff3fe608060405234801561000f575f80fd5b506004361061003f575f3560e01c806311dd8845146100435780633f723c6214610073578063541e771d1461008f575b5f80fd5b61005d60048036038101906100589190610874565b6100c2565b60405161006a91906109e2565b60405180910390f35b61008d60048036038101906100889190610a02565b61036a565b005b6100a960048036038101906100a49190610874565b6104f6565b6040516100b99493929190610afd565b60405180910390f35b6100ca6106ea565b5f80836040516100da9190610b8f565b90815260200160405180910390205f0180546100f590610bd2565b905011610137576040517f08c379a000000000000000000000000000000000000000000000000000000000815260040161012e90610c4c565b60405180910390fd5b5f826040516101469190610b8f565b90815260200160405180910390206040518060800160405290815f8201805461016e90610bd2565b80601f016020809104026020016040519081016040528092919081815260200182805461019a90610bd2565b80156101e55780601f106101bc576101008083540402835291602001916101e5565b820191905f5260205f20905b8154815290600101906020018083116101c857829003601f168201915b505050505081526020016001820180546101fe90610bd2565b80601f016020809104026020016040519081016040528092919081815260200182805461022a90610bd2565b80156102755780601f1061024c57610100808354040283529160200191610275565b820191905f5260205f20905b81548152906001019060200180831161025857829003601f168201915b5050505050815260200160028201805461028e90610bd2565b80601f01602080910402602001604051908101604052809291908181526020018280546102ba90610bd2565b80156103055780601f106102dc57610100808354040283529160200191610305565b820191905f5260205f20905b8154815290600101906020018083116102e857829003601f168201915b50505050508152602001600382015f9054906101000a900473ffffffffffffffffffffffffffffffffffffffff1673ffffffffffffffffffffffffffffffffffffffff1673ffffffffffffffffffffffffffffffffffffffff16815250509050919050565b5f808460405161037a9190610b8f565b90815260200160405180910390205f01805461039590610bd2565b9050146103d7576040517f08c379a00000000000000000000000000000000000000000000000000000000081526004016103ce90610cb4565b60405180910390fd5b60405180608001604052808481526020018381526020018281526020013373ffffffffffffffffffffffffffffffffffffffff168152505f8460405161041d9190610b8f565b90815260200160405180910390205f820151815f01908161043e9190610e78565b5060208201518160010190816104549190610e78565b50604082015181600201908161046a9190610e78565b506060820151816003015f6101000a81548173ffffffffffffffffffffffffffffffffffffffff021916908373ffffffffffffffffffffffffffffffffffffffff1602179055509050507f595d3b331eb1c8e30dfcebceb168e106e1e2cb380715997ff13342dc30a21290838383336040516104e99493929190610afd565b60405180910390a1505050565b5f818051602081018201805184825260208301602085012081835280955050505050505f91509050805f01805461052c90610bd2565b80601f016020809104026020016040519081016040528092919081815260200182805461055890610bd2565b80156105a35780601f1061057a576101008083540402835291602001916105a3565b820191905f5260205f20905b81548152906001019060200180831161058657829003601f168201915b5050505050908060010180546105b890610bd2565b80601f01602080910402602001604051908101604052809291908181526020018280546105e490610bd2565b801561062f5780601f106106065761010080835404028352916020019161062f565b820191905f5260205f20905b81548152906001019060200180831161061257829003601f168201915b50505050509080600201805461064490610bd2565b80601f016020809104026020016040519081016040528092919081815260200182805461067090610bd2565b80156106bb5780601f10610692576101008083540402835291602001916106bb565b820191905f5260205f20905b81548152906001019060200180831161069e57829003601f168201915b505050505090806003015f9054906101000a900473ffffffffffffffffffffffffffffffffffffffff16905084565b60405180608001604052806060815260200160608152602001606081526020015f73ffffffffffffffffffffffffffffffffffffffff1681525090565b5f604051905090565b5f80fd5b5f80fd5b5f80fd5b5f80fd5b5f601f19601f8301169050919050565b7f4e487b71000000000000000000000000000000000000000000000000000000005f52604160045260245ffd5b61078682610740565b810181811067ffffffffffffffff821117156107a5576107a4610750565b5b80604052505050565b5f6107b7610727565b90506107c3828261077d565b919050565b5f67ffffffffffffffff8211156107e2576107e1610750565b5b6107eb82610740565b9050602081019050919050565b828183375f83830152505050565b5f610818610813846107c8565b6107ae565b9050828152602081018484840111156108345761083361073c565b5b61083f8482856107f8565b509392505050565b5f82601f83011261085b5761085a610738565b5b813561086b848260208601610806565b91505092915050565b5f6020828403121561088957610888610730565b5b5f82013567ffffffffffffffff8111156108a6576108a5610734565b5b6108b284828501610847565b91505092915050565b5f81519050919050565b5f82825260208201905092915050565b5f5b838110156108f25780820151818401526020810190506108d7565b5f8484015250505050565b5f610907826108bb565b61091181856108c5565b93506109218185602086016108d5565b61092a81610740565b840191505092915050565b5f73ffffffffffffffffffffffffffffffffffffffff82169050919050565b5f61095e82610935565b9050919050565b61096e81610954565b82525050565b5f608083015f8301518482035f86015261098e82826108fd565b915050602083015184820360208601526109a882826108fd565b915050604083015184820360408601526109c282826108fd565b91505060608301516109d76060860182610965565b508091505092915050565b5f6020820190508181035f8301526109fa8184610974565b905092915050565b5f805f60608486031215610a1957610a18610730565b5b5f84013567ffffffffffffffff811115610a3657610a35610734565b5b610a4286828701610847565b935050602084013567ffffffffffffffff811115610a6357610a62610734565b5b610a6f86828701610847565b925050604084013567ffffffffffffffff811115610a9057610a8f610734565b5b610a9c86828701610847565b9150509250925092565b5f82825260208201905092915050565b5f610ac0826108bb565b610aca8185610aa6565b9350610ada8185602086016108d5565b610ae381610740565b840191505092915050565b610af781610954565b82525050565b5f6080820190508181035f830152610b158187610ab6565b90508181036020830152610b298186610ab6565b90508181036040830152610b3d8185610ab6565b9050610b4c6060830184610aee565b95945050505050565b5f81905092915050565b5f610b69826108bb565b610b738185610b55565b9350610b838185602086016108d5565b80840191505092915050565b5f610b9a8284610b5f565b915081905092915050565b7f4e487b71000000000000000000000000000000000000000000000000000000005f52602260045260245ffd5b5f6002820490506001821680610be957607f821691505b602082108103610bfc57610bfb610ba5565b5b50919050565b7f5265636f726420646f6573206e6f7420657869737400000000000000000000005f82015250565b5f610c36601583610aa6565b9150610c4182610c02565b602082019050919050565b5f6020820190508181035f830152610c6381610c2a565b9050919050565b7f5265636f726420616c72656164792065786973747300000000000000000000005f82015250565b5f610c9e601583610aa6565b9150610ca982610c6a565b602082019050919050565b5f6020820190508181035f830152610ccb81610c92565b9050919050565b5f819050815f5260205f209050919050565b5f6020601f8301049050919050565b5f82821b905092915050565b5f60088302610d2e7fffffffffffffffffffffffffffffffffffffffffffffffffffffffffffffffff82610cf3565b610d388683610cf3565b95508019841693508086168417925050509392505050565b5f819050919050565b5f819050919050565b5f610d7c610d77610d7284610d50565b610d59565b610d50565b9050919050565b5f819050919050565b610d9583610d62565b610da9610da182610d83565b848454610cff565b825550505050565b5f90565b610dbd610db1565b610dc8818484610d8c565b505050565b5b81811015610deb57610de05f82610db5565b600181019050610dce565b5050565b601f821115610e3057610e0181610cd2565b610e0a84610ce4565b81016020851015610e19578190505b610e2d610e2585610ce4565b830182610dcd565b50505b505050565b5f82821c905092915050565b5f610e505f1984600802610e35565b1980831691505092915050565b5f610e688383610e41565b9150826002028217905092915050565b610e81826108bb565b67ffffffffffffffff811115610e9a57610e99610750565b5b610ea48254610bd2565b610eaf828285610def565b5f60209050601f831160018114610ee0575f8415610ece578287015190505b610ed88582610e5d565b865550610f3f565b601f198416610eee86610cd2565b5f5b82811015610f1557848901518255600182019150602085019450602081019050610ef0565b86831015610f325784890151610f2e601f891682610e41565b8355505b6001600288020188555050505b50505050505056fea26469706673582212203502089024cf452f7411dbe6f872d48638432ccf00915506395b9cbfa30f120664736f6c63430008150033",
  "immutableReferences": {},
  "source": "// SPDX-License-Identifier: MIT\r\npragma solidity ^0.8.0;\r\n\r\ncontract MedicalRecords {\r\n    struct Record {\r\n        string recordId;\r\n        string ipfsHash;\r\n        string owner; // Patient ID\r\n        address addedBy; // Doctor's wallet address\r\n    }\r\n\r\n    mapping(string => Record) public records; // Mapping of recordId to Record\r\n\r\n    event RecordAdded(string recordId, string ipfsHash, string owner, address addedBy);\r\n\r\n    function addRecord(string memory recordId, string memory ipfsHash, string memory owner) public {\r\n        require(bytes(records[recordId].recordId).length == 0, \"Record already exists\");\r\n\r\n        records[recordId] = Record(recordId, ipfsHash, owner, msg.sender);\r\n        emit RecordAdded(recordId, ipfsHash, owner, msg.sender);\r\n    }\r\n\r\n    function getRecord(string memory recordId) public view returns (Record memory) {\r\n        require(bytes(records[recordId].recordId).length > 0, \"Record does not exist\");\r\n        return records[recordId];\r\n    }\r\n}\r\n",
  "sourcePath": "C:\\Users\\kriti\\my-blockchain\\smart contracts\\contracts\\MedicalRecords.sol",
  "compiler": {
    "name": "solc",
    "version": "0.8.21+commit.d9974bed.Emscripten.clang"
  },
  "schemaVersion": "3.4.16",
  "updatedAt": "2024-12-11T03:21:10.815Z",
  "devdoc": {
    "kind": "dev",
    "methods": {},
    "version": 1
  },
  "userdoc": {
    "kind": "user",
    "methods": {},
    "version": 1
  }
}