{
  "contractName": "MedicalRecords",
  "abi": [
    {
      "anonymous": false,
      "inputs": [
        {
          "indexed": false,
          "internalType": "string",
          "name": "recordId",
          "type": "string"
        },
        {
          "indexed": false,
          "internalType": "string",
          "name": "ipfsHash",
          "type": "string"
        },
        {
          "indexed": false,
          "internalType": "string",
          "name": "owner",
          "type": "string"
        },
        {
          "indexed": false,
          "internalType": "address",
          "name": "addedBy",
          "type": "address"
        }
      ],
      "name": "RecordAdded",
      "type": "event"
    },
    {
      "inputs": [
        {
          "internalType": "string",
          "name": "",
          "type": "string"
        }
      ],
      "name": "records",
      "outputs": [
        {
          "internalType": "string",
          "name": "recordId",
          "type": "string"
        },
        {
          "internalType": "string",
          "name": "ipfsHash",
          "type": "string"
        },
        {
          "internalType": "string",
          "name": "owner",
          "type": "string"
        },
        {
          "internalType": "address",
          "name": "addedBy",
          "type": "address"
        }
      ],
      "stateMutability": "view",
      "type": "function",
      "constant": true
    },
    {
      "inputs": [
        {
          "internalType": "string",
          "name": "recordId",
          "type": "string"
        },
        {
          "internalType": "string",
          "name": "ipfsHash",
          "type": "string"
        },
        {
          "internalType": "string",
          "name": "owner",
          "type": "string"
        }
      ],
      "name": "addRecord",
      "outputs": [],
      "stateMutability": "nonpayable",
      "type": "function"
    },
    {
      "inputs": [
        {
          "internalType": "string",
          "name": "recordId",
          "type": "string"
        }
      ],
      "name": "getRecord",
      "outputs": [
        {
          "components": [
            {
              "internalType": "string",
              "name": "recordId",
              "type": "string"
            },
            {
              "internalType": "string",
              "name": "ipfsHash",
              "type": "string"
            },
            {
              "internalType": "string",
              "name": "owner",
              "type": "string"
            },
            {
              "internalType": "address",
              "name": "addedBy",
              "type": "address"
            }
          ],
          "internalType": "struct MedicalRecords.Record",
          "name": "",
          "type": "tuple"
        }
      ],
      "stateMutability": "view",
      "type": "function",
      "constant": true
    }
  ],
  "bytecode": "0x608060405234801561001057600080fd5b50610a4e806100206000396000f3fe608060405234801561001057600080fd5b50600436106100415760003560e01c806311dd8845146100465780633f723c621461006f578063541e771d14610084575b600080fd5b6100596100543660046107bd565b6100a7565b604051610066919061091d565b60405180910390f35b61008261007d3660046107fa565b61034c565b005b6100976100923660046107bd565b6104c3565b60405161006694939291906108ca565b6100db604051806080016040528060608152602001606081526020016060815260200160006001600160a01b031681525090565b600080836040516100ec91906108ae565b9081526040519081900360200190208054610106906109c7565b9050116101525760405162461bcd60e51b8152602060048201526015602482015274149958dbdc9908191bd95cc81b9bdd08195e1a5cdd605a1b60448201526064015b60405180910390fd5b60008260405161016291906108ae565b908152602001604051809103902060405180608001604052908160008201805461018b906109c7565b80601f01602080910402602001604051908101604052809291908181526020018280546101b7906109c7565b80156102045780601f106101d957610100808354040283529160200191610204565b820191906000526020600020905b8154815290600101906020018083116101e757829003601f168201915b5050505050815260200160018201805461021d906109c7565b80601f0160208091040260200160405190810160405280929190818152602001828054610249906109c7565b80156102965780601f1061026b57610100808354040283529160200191610296565b820191906000526020600020905b81548152906001019060200180831161027957829003601f168201915b505050505081526020016002820180546102af906109c7565b80601f01602080910402602001604051908101604052809291908181526020018280546102db906109c7565b80156103285780601f106102fd57610100808354040283529160200191610328565b820191906000526020600020905b81548152906001019060200180831161030b57829003601f168201915b5050509183525050600391909101546001600160a01b031660209091015292915050565b60008360405161035c91906108ae565b9081526040519081900360200190208054610376906109c7565b1590506103bd5760405162461bcd60e51b81526020600482015260156024820152745265636f726420616c72656164792065786973747360581b6044820152606401610149565b6040518060800160405280848152602001838152602001828152602001336001600160a01b03168152506000846040516103f791906108ae565b90815260200160405180910390206000820151816000019080519060200190610421929190610697565b50602082810151805161043a9260018501920190610697565b5060408201518051610456916002840191602090910190610697565b5060609190910151600390910180546001600160a01b0319166001600160a01b039092169190911790556040517f595d3b331eb1c8e30dfcebceb168e106e1e2cb380715997ff13342dc30a21290906104b69085908590859033906108ca565b60405180910390a1505050565b80516020818301810180516000825292820191909301209152805481906104e9906109c7565b80601f0160208091040260200160405190810160405280929190818152602001828054610515906109c7565b80156105625780601f1061053757610100808354040283529160200191610562565b820191906000526020600020905b81548152906001019060200180831161054557829003601f168201915b505050505090806001018054610577906109c7565b80601f01602080910402602001604051908101604052809291908181526020018280546105a3906109c7565b80156105f05780601f106105c5576101008083540402835291602001916105f0565b820191906000526020600020905b8154815290600101906020018083116105d357829003601f168201915b505050505090806002018054610605906109c7565b80601f0160208091040260200160405190810160405280929190818152602001828054610631906109c7565b801561067e5780601f106106535761010080835404028352916020019161067e565b820191906000526020600020905b81548152906001019060200180831161066157829003601f168201915b505050600390930154919250506001600160a01b031684565b8280546106a3906109c7565b90600052602060002090601f0160209004810192826106c5576000855561070b565b82601f106106de57805160ff191683800117855561070b565b8280016001018555821561070b579182015b8281111561070b5782518255916020019190600101906106f0565b5061071792915061071b565b5090565b5b80821115610717576000815560010161071c565b600082601f83011261074157600080fd5b813567ffffffffffffffff8082111561075c5761075c610a02565b604051601f8301601f19908116603f0116810190828211818310171561078457610784610a02565b8160405283815286602085880101111561079d57600080fd5b836020870160208301376000602085830101528094505050505092915050565b6000602082840312156107cf57600080fd5b813567ffffffffffffffff8111156107e657600080fd5b6107f284828501610730565b949350505050565b60008060006060848603121561080f57600080fd5b833567ffffffffffffffff8082111561082757600080fd5b61083387838801610730565b9450602086013591508082111561084957600080fd5b61085587838801610730565b9350604086013591508082111561086b57600080fd5b5061087886828701610730565b9150509250925092565b6000815180845261089a816020860160208601610997565b601f01601f19169290920160200192915050565b600082516108c0818460208701610997565b9190910192915050565b6080815260006108dd6080830187610882565b82810360208401526108ef8187610882565b905082810360408401526109038186610882565b91505060018060a01b038316606083015295945050505050565b60208152600082516080602084015261093960a0840182610882565b90506020840151601f19808584030160408601526109578383610882565b92506040860151915080858403016060860152506109758282610882565b606095909501516001600160a01b031660809490940193909352509192915050565b60005b838110156109b257818101518382015260200161099a565b838111156109c1576000848401525b50505050565b600181811c908216806109db57607f821691505b602082108114156109fc57634e487b7160e01b600052602260045260246000fd5b50919050565b634e487b7160e01b600052604160045260246000fdfea2646970667358221220361d6c71840a2c0c524e1e562a9b4e75a194731cd3854e08d59ad536f764acba64736f6c63430008070033",
  "immutableReferences": {},
  "source": "// SPDX-License-Identifier: MIT\r\npragma solidity ^0.8.0;\r\n\r\ncontract MedicalRecords {\r\n    struct Record {\r\n        string recordId;\r\n        string ipfsHash;\r\n        string owner; // Patient ID\r\n        address addedBy; // Doctor's wallet address\r\n    }\r\n\r\n    mapping(string => Record) public records; // Mapping of recordId to Record\r\n\r\n    event RecordAdded(string recordId, string ipfsHash, string owner, address addedBy);\r\n\r\n    function addRecord(string memory recordId, string memory ipfsHash, string memory owner) public {\r\n        require(bytes(records[recordId].recordId).length == 0, \"Record already exists\");\r\n\r\n        records[recordId] = Record(recordId, ipfsHash, owner, msg.sender);\r\n        emit RecordAdded(recordId, ipfsHash, owner, msg.sender);\r\n    }\r\n\r\n    function getRecord(string memory recordId) public view returns (Record memory) {\r\n        require(bytes(records[recordId].recordId).length > 0, \"Record does not exist\");\r\n        return records[recordId];\r\n    }\r\n}\r\n",
  "sourcePath": "C:\\Users\\kriti\\my-blockchain\\smart contracts\\contracts\\MedicalRecords.sol",
  "compiler": {
    "name": "solc",
    "version": "0.8.7+commit.e28d00a7.Emscripten.clang"
  },
  "schemaVersion": "3.4.16",
  "updatedAt": "2024-12-11T03:30:53.145Z",
  "networkType": "ethereum",
  "devdoc": {
    "kind": "dev",
    "methods": {},
    "version": 1
  },
  "userdoc": {
    "kind": "user",
    "methods": {},
    "version": 1
  }
}