{
  "contractName": "PermissionManagement",
  "abi": [
    {
      "anonymous": false,
      "inputs": [
        {
          "indexed": false,
          "internalType": "string",
          "name": "recordId",
          "type": "string"
        },
        {
          "indexed": false,
          "internalType": "address",
          "name": "grantedTo",
          "type": "address"
        }
      ],
      "name": "PermissionGranted",
      "type": "event"
    },
    {
      "anonymous": false,
      "inputs": [
        {
          "indexed": false,
          "internalType": "string",
          "name": "recordId",
          "type": "string"
        },
        {
          "indexed": false,
          "internalType": "address",
          "name": "grantedTo",
          "type": "address"
        }
      ],
      "name": "PermissionRevoked",
      "type": "event"
    },
    {
      "inputs": [
        {
          "internalType": "string",
          "name": "",
          "type": "string"
        },
        {
          "internalType": "uint256",
          "name": "",
          "type": "uint256"
        }
      ],
      "name": "permissions",
      "outputs": [
        {
          "internalType": "string",
          "name": "recordId",
          "type": "string"
        },
        {
          "internalType": "address",
          "name": "grantedTo",
          "type": "address"
        },
        {
          "internalType": "bool",
          "name": "isGranted",
          "type": "bool"
        }
      ],
      "stateMutability": "view",
      "type": "function",
      "constant": true
    },
    {
      "inputs": [
        {
          "internalType": "string",
          "name": "recordId",
          "type": "string"
        },
        {
          "internalType": "address",
          "name": "doctor",
          "type": "address"
        }
      ],
      "name": "grantPermission",
      "outputs": [],
      "stateMutability": "nonpayable",
      "type": "function"
    },
    {
      "inputs": [
        {
          "internalType": "string",
          "name": "recordId",
          "type": "string"
        },
        {
          "internalType": "address",
          "name": "doctor",
          "type": "address"
        }
      ],
      "name": "revokePermission",
      "outputs": [],
      "stateMutability": "nonpayable",
      "type": "function"
    },
    {
      "inputs": [
        {
          "internalType": "string",
          "name": "recordId",
          "type": "string"
        }
      ],
      "name": "getPermissions",
      "outputs": [
        {
          "components": [
            {
              "internalType": "string",
              "name": "recordId",
              "type": "string"
            },
            {
              "internalType": "address",
              "name": "grantedTo",
              "type": "address"
            },
            {
              "internalType": "bool",
              "name": "isGranted",
              "type": "bool"
            }
          ],
          "internalType": "struct PermissionManagement.Permission[]",
          "name": "",
          "type": "tuple[]"
        }
      ],
      "stateMutability": "view",
      "type": "function",
      "constant": true
    }
  ],
  "bytecode": "0x608060405234801561001057600080fd5b50610894806100206000396000f3fe608060405234801561001057600080fd5b506004361061004c5760003560e01c806342e8ce2a146100515780635c0bce671461006657806374ef16e1146100795780639cb7e1d5146100a2575b600080fd5b61006461005f366004610609565b6100c4565b005b610064610074366004610609565b6101a6565b61008c6100873660046105cc565b61027c565b60405161009991906106f4565b60405180910390f35b6100b56100b0366004610667565b6103b8565b604051610099939291906107aa565b6000826040516100d491906106d8565b9081526040805191829003602090810183206060840183528584526001600160a01b0385168483015260009284018390528054600181018255908352918190208351805160029094029091019261012e92849201906104a6565b506020820151600190910180546040938401511515600160a01b026001600160a81b03199091166001600160a01b0390931692909217919091179055517fb0948f04fe442d4a4537ab853413218081ee0cacb6095698486f22271166bdfd9061019a9084908490610780565b60405180910390a15050565b6000826040516101b691906106d8565b9081526040805191829003602090810183206060840183528584526001600160a01b0385168483015260019284018390528054928301815560009081528190208351805160029094029091019261021092849201906104a6565b506020820151600190910180546040938401511515600160a01b026001600160a81b03199091166001600160a01b0390931692909217919091179055517f30f499dee5aca26bf88e6932509f2693b637e648ec36ac97034db8869f1186399061019a9084908490610780565b606060008260405161028e91906106d8565b9081526020016040518091039020805480602002602001604051908101604052809291908181526020016000905b828210156103ad57838290600052602060002090600202016040518060600160405290816000820180546102ef9061080d565b80601f016020809104026020016040519081016040528092919081815260200182805461031b9061080d565b80156103685780601f1061033d57610100808354040283529160200191610368565b820191906000526020600020905b81548152906001019060200180831161034b57829003601f168201915b50505091835250506001918201546001600160a01b038116602080840191909152600160a01b90910460ff1615156040909201919091529183529290920191016102bc565b505050509050919050565b815160208184018101805160008252928201918501919091209190528054829081106103e357600080fd5b9060005260206000209060020201600091509150508060000180546104079061080d565b80601f01602080910402602001604051908101604052809291908181526020018280546104339061080d565b80156104805780601f1061045557610100808354040283529160200191610480565b820191906000526020600020905b81548152906001019060200180831161046357829003601f168201915b505050600190930154919250506001600160a01b0381169060ff600160a01b9091041683565b8280546104b29061080d565b90600052602060002090601f0160209004810192826104d4576000855561051a565b82601f106104ed57805160ff191683800117855561051a565b8280016001018555821561051a579182015b8281111561051a5782518255916020019190600101906104ff565b5061052692915061052a565b5090565b5b80821115610526576000815560010161052b565b600082601f83011261055057600080fd5b813567ffffffffffffffff8082111561056b5761056b610848565b604051601f8301601f19908116603f0116810190828211818310171561059357610593610848565b816040528381528660208588010111156105ac57600080fd5b836020870160208301376000602085830101528094505050505092915050565b6000602082840312156105de57600080fd5b813567ffffffffffffffff8111156105f557600080fd5b6106018482850161053f565b949350505050565b6000806040838503121561061c57600080fd5b823567ffffffffffffffff81111561063357600080fd5b61063f8582860161053f565b92505060208301356001600160a01b038116811461065c57600080fd5b809150509250929050565b6000806040838503121561067a57600080fd5b823567ffffffffffffffff81111561069157600080fd5b61069d8582860161053f565b95602094909401359450505050565b600081518084526106c48160208601602086016107dd565b601f01601f19169290920160200192915050565b600082516106ea8184602087016107dd565b9190910192915050565b60006020808301818452808551808352604092508286019150828160051b87010184880160005b8381101561077257603f19898403018552815160608151818652610741828701826106ac565b838b01516001600160a01b0316878c015292890151151595890195909552509487019492509086019060010161071b565b509098975050505050505050565b60408152600061079360408301856106ac565b905060018060a01b03831660208301529392505050565b6060815260006107bd60608301866106ac565b6001600160a01b0394909416602083015250901515604090910152919050565b60005b838110156107f85781810151838201526020016107e0565b83811115610807576000848401525b50505050565b600181811c9082168061082157607f821691505b6020821081141561084257634e487b7160e01b600052602260045260246000fd5b50919050565b634e487b7160e01b600052604160045260246000fdfea2646970667358221220b6269f3761ec444229d594cb8341992a9c4a46bc6f2b55a1b048608ec3a4174864736f6c63430008070033",
  "immutableReferences": {},
  "source": "// SPDX-License-Identifier: MIT\r\npragma solidity ^0.8.0;\r\n\r\ncontract PermissionManagement {\r\n    struct Permission {\r\n        string recordId;\r\n        address grantedTo; // Doctor's wallet address\r\n        bool isGranted;\r\n    }\r\n\r\n    mapping(string => Permission[]) public permissions; // Map recordId to a list of permissions\r\n\r\n    event PermissionGranted(string recordId, address grantedTo);\r\n    event PermissionRevoked(string recordId, address grantedTo);\r\n\r\n    function grantPermission(string memory recordId, address doctor) public {\r\n        permissions[recordId].push(Permission(recordId, doctor, true));\r\n        emit PermissionGranted(recordId, doctor);\r\n    }\r\n\r\n    function revokePermission(string memory recordId, address doctor) public {\r\n        permissions[recordId].push(Permission(recordId, doctor, false));\r\n        emit PermissionRevoked(recordId, doctor);\r\n    }\r\n\r\n    function getPermissions(string memory recordId) public view returns (Permission[] memory) {\r\n        return permissions[recordId];\r\n    }\r\n}\r\n",
  "sourcePath": "C:\\Users\\kriti\\my-blockchain\\smart contracts\\contracts\\PermissionManagement.sol",
  "compiler": {
    "name": "solc",
    "version": "0.8.7+commit.e28d00a7.Emscripten.clang"
  },
  "schemaVersion": "3.4.16",
  "updatedAt": "2024-12-11T03:30:53.299Z",
  "networkType": "ethereum",
  "devdoc": {
    "kind": "dev",
    "methods": {},
    "version": 1
  },
  "userdoc": {
    "kind": "user",
    "methods": {},
    "version": 1
  }
}