{
  "contractName": "PermissionManagement",
  "abi": [
    {
      "anonymous": false,
      "inputs": [
        {
          "indexed": false,
          "internalType": "string",
          "name": "recordId",
          "type": "string"
        },
        {
          "indexed": false,
          "internalType": "address",
          "name": "grantedTo",
          "type": "address"
        }
      ],
      "name": "PermissionGranted",
      "type": "event"
    },
    {
      "anonymous": false,
      "inputs": [
        {
          "indexed": false,
          "internalType": "string",
          "name": "recordId",
          "type": "string"
        },
        {
          "indexed": false,
          "internalType": "address",
          "name": "grantedTo",
          "type": "address"
        }
      ],
      "name": "PermissionRevoked",
      "type": "event"
    },
    {
      "inputs": [
        {
          "internalType": "string",
          "name": "",
          "type": "string"
        },
        {
          "internalType": "uint256",
          "name": "",
          "type": "uint256"
        }
      ],
      "name": "permissions",
      "outputs": [
        {
          "internalType": "string",
          "name": "recordId",
          "type": "string"
        },
        {
          "internalType": "address",
          "name": "grantedTo",
          "type": "address"
        },
        {
          "internalType": "bool",
          "name": "isGranted",
          "type": "bool"
        }
      ],
      "stateMutability": "view",
      "type": "function"
    },
    {
      "inputs": [
        {
          "internalType": "string",
          "name": "recordId",
          "type": "string"
        },
        {
          "internalType": "address",
          "name": "doctor",
          "type": "address"
        }
      ],
      "name": "grantPermission",
      "outputs": [],
      "stateMutability": "nonpayable",
      "type": "function"
    },
    {
      "inputs": [
        {
          "internalType": "string",
          "name": "recordId",
          "type": "string"
        },
        {
          "internalType": "address",
          "name": "doctor",
          "type": "address"
        }
      ],
      "name": "revokePermission",
      "outputs": [],
      "stateMutability": "nonpayable",
      "type": "function"
    },
    {
      "inputs": [
        {
          "internalType": "string",
          "name": "recordId",
          "type": "string"
        }
      ],
      "name": "getPermissions",
      "outputs": [
        {
          "components": [
            {
              "internalType": "string",
              "name": "recordId",
              "type": "string"
            },
            {
              "internalType": "address",
              "name": "grantedTo",
              "type": "address"
            },
            {
              "internalType": "bool",
              "name": "isGranted",
              "type": "bool"
            }
          ],
          "internalType": "struct PermissionManagement.Permission[]",
          "name": "",
          "type": "tuple[]"
        }
      ],
      "stateMutability": "view",
      "type": "function"
    }
  ],
  "bytecode": "0x608060405234801561000f575f80fd5b50610e878061001d5f395ff3fe608060405234801561000f575f80fd5b506004361061004a575f3560e01c806342e8ce2a1461004e5780635c0bce671461006a57806374ef16e1146100865780639cb7e1d5146100b6575b5f80fd5b6100686004803603810190610063919061076f565b6100e8565b005b610084600480360381019061007f919061076f565b610217565b005b6100a0600480360381019061009b91906107c9565b610347565b6040516100ad91906109bb565b60405180910390f35b6100d060048036038101906100cb9190610a0e565b6104bf565b6040516100df93929190610ace565b60405180910390f35b5f826040516100f79190610b44565b908152602001604051809103902060405180606001604052808481526020018373ffffffffffffffffffffffffffffffffffffffff1681526020015f1515815250908060018154018082558091505060019003905f5260205f2090600202015f909190919091505f820151815f0190816101719190610d54565b506020820151816001015f6101000a81548173ffffffffffffffffffffffffffffffffffffffff021916908373ffffffffffffffffffffffffffffffffffffffff16021790555060408201518160010160146101000a81548160ff02191690831515021790555050507fb0948f04fe442d4a4537ab853413218081ee0cacb6095698486f22271166bdfd828260405161020b929190610e23565b60405180910390a15050565b5f826040516102269190610b44565b908152602001604051809103902060405180606001604052808481526020018373ffffffffffffffffffffffffffffffffffffffff16815260200160011515815250908060018154018082558091505060019003905f5260205f2090600202015f909190919091505f820151815f0190816102a19190610d54565b506020820151816001015f6101000a81548173ffffffffffffffffffffffffffffffffffffffff021916908373ffffffffffffffffffffffffffffffffffffffff16021790555060408201518160010160146101000a81548160ff02191690831515021790555050507f30f499dee5aca26bf88e6932509f2693b637e648ec36ac97034db8869f118639828260405161033b929190610e23565b60405180910390a15050565b60605f826040516103589190610b44565b9081526020016040518091039020805480602002602001604051908101604052809291908181526020015f905b828210156104b4578382905f5260205f2090600202016040518060600160405290815f820180546103b590610b87565b80601f01602080910402602001604051908101604052809291908181526020018280546103e190610b87565b801561042c5780601f106104035761010080835404028352916020019161042c565b820191905f5260205f20905b81548152906001019060200180831161040f57829003601f168201915b50505050508152602001600182015f9054906101000a900473ffffffffffffffffffffffffffffffffffffffff1673ffffffffffffffffffffffffffffffffffffffff1673ffffffffffffffffffffffffffffffffffffffff1681526020016001820160149054906101000a900460ff16151515158152505081526020019060010190610385565b505050509050919050565b5f8280516020810182018051848252602083016020850120818352809550505050505081815481106104ef575f80fd5b905f5260205f2090600202015f9150915050805f01805461050f90610b87565b80601f016020809104026020016040519081016040528092919081815260200182805461053b90610b87565b80156105865780601f1061055d57610100808354040283529160200191610586565b820191905f5260205f20905b81548152906001019060200180831161056957829003601f168201915b505050505090806001015f9054906101000a900473ffffffffffffffffffffffffffffffffffffffff16908060010160149054906101000a900460ff16905083565b5f604051905090565b5f80fd5b5f80fd5b5f80fd5b5f80fd5b5f601f19601f8301169050919050565b7f4e487b71000000000000000000000000000000000000000000000000000000005f52604160045260245ffd5b610627826105e1565b810181811067ffffffffffffffff82111715610646576106456105f1565b5b80604052505050565b5f6106586105c8565b9050610664828261061e565b919050565b5f67ffffffffffffffff821115610683576106826105f1565b5b61068c826105e1565b9050602081019050919050565b828183375f83830152505050565b5f6106b96106b484610669565b61064f565b9050828152602081018484840111156106d5576106d46105dd565b5b6106e0848285610699565b509392505050565b5f82601f8301126106fc576106fb6105d9565b5b813561070c8482602086016106a7565b91505092915050565b5f73ffffffffffffffffffffffffffffffffffffffff82169050919050565b5f61073e82610715565b9050919050565b61074e81610734565b8114610758575f80fd5b50565b5f8135905061076981610745565b92915050565b5f8060408385031215610785576107846105d1565b5b5f83013567ffffffffffffffff8111156107a2576107a16105d5565b5b6107ae858286016106e8565b92505060206107bf8582860161075b565b9150509250929050565b5f602082840312156107de576107dd6105d1565b5b5f82013567ffffffffffffffff8111156107fb576107fa6105d5565b5b610807848285016106e8565b91505092915050565b5f81519050919050565b5f82825260208201905092915050565b5f819050602082019050919050565b5f81519050919050565b5f82825260208201905092915050565b5f5b83811015610870578082015181840152602081019050610855565b5f8484015250505050565b5f61088582610839565b61088f8185610843565b935061089f818560208601610853565b6108a8816105e1565b840191505092915050565b6108bc81610734565b82525050565b5f8115159050919050565b6108d6816108c2565b82525050565b5f606083015f8301518482035f8601526108f6828261087b565b915050602083015161090b60208601826108b3565b50604083015161091e60408601826108cd565b508091505092915050565b5f61093483836108dc565b905092915050565b5f602082019050919050565b5f61095282610810565b61095c818561081a565b93508360208202850161096e8561082a565b805f5b858110156109a9578484038952815161098a8582610929565b94506109958361093c565b925060208a01995050600181019050610971565b50829750879550505050505092915050565b5f6020820190508181035f8301526109d38184610948565b905092915050565b5f819050919050565b6109ed816109db565b81146109f7575f80fd5b50565b5f81359050610a08816109e4565b92915050565b5f8060408385031215610a2457610a236105d1565b5b5f83013567ffffffffffffffff811115610a4157610a406105d5565b5b610a4d858286016106e8565b9250506020610a5e858286016109fa565b9150509250929050565b5f82825260208201905092915050565b5f610a8282610839565b610a8c8185610a68565b9350610a9c818560208601610853565b610aa5816105e1565b840191505092915050565b610ab981610734565b82525050565b610ac8816108c2565b82525050565b5f6060820190508181035f830152610ae68186610a78565b9050610af56020830185610ab0565b610b026040830184610abf565b949350505050565b5f81905092915050565b5f610b1e82610839565b610b288185610b0a565b9350610b38818560208601610853565b80840191505092915050565b5f610b4f8284610b14565b915081905092915050565b7f4e487b71000000000000000000000000000000000000000000000000000000005f52602260045260245ffd5b5f6002820490506001821680610b9e57607f821691505b602082108103610bb157610bb0610b5a565b5b50919050565b5f819050815f5260205f209050919050565b5f6020601f8301049050919050565b5f82821b905092915050565b5f60088302610c137fffffffffffffffffffffffffffffffffffffffffffffffffffffffffffffffff82610bd8565b610c1d8683610bd8565b95508019841693508086168417925050509392505050565b5f819050919050565b5f610c58610c53610c4e846109db565b610c35565b6109db565b9050919050565b5f819050919050565b610c7183610c3e565b610c85610c7d82610c5f565b848454610be4565b825550505050565b5f90565b610c99610c8d565b610ca4818484610c68565b505050565b5b81811015610cc757610cbc5f82610c91565b600181019050610caa565b5050565b601f821115610d0c57610cdd81610bb7565b610ce684610bc9565b81016020851015610cf5578190505b610d09610d0185610bc9565b830182610ca9565b50505b505050565b5f82821c905092915050565b5f610d2c5f1984600802610d11565b1980831691505092915050565b5f610d448383610d1d565b9150826002028217905092915050565b610d5d82610839565b67ffffffffffffffff811115610d7657610d756105f1565b5b610d808254610b87565b610d8b828285610ccb565b5f60209050601f831160018114610dbc575f8415610daa578287015190505b610db48582610d39565b865550610e1b565b601f198416610dca86610bb7565b5f5b82811015610df157848901518255600182019150602085019450602081019050610dcc565b86831015610e0e5784890151610e0a601f891682610d1d565b8355505b6001600288020188555050505b505050505050565b5f6040820190508181035f830152610e3b8185610a78565b9050610e4a6020830184610ab0565b939250505056fea26469706673582212209da33a32d82fb46e9dcf4855c3bf00ae76c6638297d3bb0a38ecebc4de3088f064736f6c63430008150033",
  "immutableReferences": {},
  "source": "// SPDX-License-Identifier: MIT\r\npragma solidity ^0.8.0;\r\n\r\ncontract PermissionManagement {\r\n    struct Permission {\r\n        string recordId;\r\n        address grantedTo; // Doctor's wallet address\r\n        bool isGranted;\r\n    }\r\n\r\n    mapping(string => Permission[]) public permissions; // Map recordId to a list of permissions\r\n\r\n    event PermissionGranted(string recordId, address grantedTo);\r\n    event PermissionRevoked(string recordId, address grantedTo);\r\n\r\n    function grantPermission(string memory recordId, address doctor) public {\r\n        permissions[recordId].push(Permission(recordId, doctor, true));\r\n        emit PermissionGranted(recordId, doctor);\r\n    }\r\n\r\n    function revokePermission(string memory recordId, address doctor) public {\r\n        permissions[recordId].push(Permission(recordId, doctor, false));\r\n        emit PermissionRevoked(recordId, doctor);\r\n    }\r\n\r\n    function getPermissions(string memory recordId) public view returns (Permission[] memory) {\r\n        return permissions[recordId];\r\n    }\r\n}\r\n",
  "sourcePath": "C:\\Users\\kriti\\my-blockchain\\smart contracts\\contracts\\PermissionManagement.sol",
  "compiler": {
    "name": "solc",
    "version": "0.8.21+commit.d9974bed.Emscripten.clang"
  },
  "schemaVersion": "3.4.16",
  "updatedAt": "2024-12-11T03:21:10.817Z",
  "devdoc": {
    "kind": "dev",
    "methods": {},
    "version": 1
  },
  "userdoc": {
    "kind": "user",
    "methods": {},
    "version": 1
  }
}