{
  "contractName": "UserManagement",
  "abi": [
    {
      "anonymous": false,
      "inputs": [
        {
          "indexed": false,
          "internalType": "string",
          "name": "userId",
          "type": "string"
        },
        {
          "indexed": false,
          "internalType": "string",
          "name": "userType",
          "type": "string"
        },
        {
          "indexed": false,
          "internalType": "address",
          "name": "wallet",
          "type": "address"
        }
      ],
      "name": "UserCreated",
      "type": "event"
    },
    {
      "inputs": [
        {
          "internalType": "string",
          "name": "",
          "type": "string"
        }
      ],
      "name": "users",
      "outputs": [
        {
          "internalType": "string",
          "name": "userId",
          "type": "string"
        },
        {
          "internalType": "string",
          "name": "userType",
          "type": "string"
        },
        {
          "internalType": "address",
          "name": "wallet",
          "type": "address"
        }
      ],
      "stateMutability": "view",
      "type": "function",
      "constant": true
    },
    {
      "inputs": [
        {
          "internalType": "string",
          "name": "userId",
          "type": "string"
        },
        {
          "internalType": "string",
          "name": "userType",
          "type": "string"
        }
      ],
      "name": "createUser",
      "outputs": [],
      "stateMutability": "nonpayable",
      "type": "function"
    },
    {
      "inputs": [
        {
          "internalType": "string",
          "name": "userId",
          "type": "string"
        }
      ],
      "name": "getUser",
      "outputs": [
        {
          "components": [
            {
              "internalType": "string",
              "name": "userId",
              "type": "string"
            },
            {
              "internalType": "string",
              "name": "userType",
              "type": "string"
            },
            {
              "internalType": "address",
              "name": "wallet",
              "type": "address"
            }
          ],
          "internalType": "struct UserManagement.User",
          "name": "",
          "type": "tuple"
        }
      ],
      "stateMutability": "view",
      "type": "function",
      "constant": true
    }
  ],
  "bytecode": "0x608060405234801561001057600080fd5b5061095b806100206000396000f3fe608060405234801561001057600080fd5b50600436106100415760003560e01c806331feb67114610046578063689e1c031461006f57806387b162b514610091575b600080fd5b610059610054366004610722565b6100a6565b6040516100669190610849565b60405180910390f35b61008261007d366004610722565b61029f565b6040516100669392919061080b565b6100a461009f36600461075f565b6103e5565b005b60408051606080820183528082526020820152600091810191909152600080836040516100d391906107ef565b90815260405190819003602001902080546100ed906108d4565b9050116101375760405162461bcd60e51b8152602060048201526013602482015272155cd95c88191bd95cc81b9bdd08195e1a5cdd606a1b60448201526064015b60405180910390fd5b60008260405161014791906107ef565b9081526020016040518091039020604051806060016040529081600082018054610170906108d4565b80601f016020809104026020016040519081016040528092919081815260200182805461019c906108d4565b80156101e95780601f106101be576101008083540402835291602001916101e9565b820191906000526020600020905b8154815290600101906020018083116101cc57829003601f168201915b50505050508152602001600182018054610202906108d4565b80601f016020809104026020016040519081016040528092919081815260200182805461022e906108d4565b801561027b5780601f106102505761010080835404028352916020019161027b565b820191906000526020600020905b81548152906001019060200180831161025e57829003601f168201915b5050509183525050600291909101546001600160a01b031660209091015292915050565b80516020818301810180516000825292820191909301209152805481906102c5906108d4565b80601f01602080910402602001604051908101604052809291908181526020018280546102f1906108d4565b801561033e5780601f106103135761010080835404028352916020019161033e565b820191906000526020600020905b81548152906001019060200180831161032157829003601f168201915b505050505090806001018054610353906108d4565b80601f016020809104026020016040519081016040528092919081815260200182805461037f906108d4565b80156103cc5780601f106103a1576101008083540402835291602001916103cc565b820191906000526020600020905b8154815290600101906020018083116103af57829003601f168201915b505050600290930154919250506001600160a01b031683565b6000826040516103f591906107ef565b908152604051908190036020019020805461040f906108d4565b1590506104545760405162461bcd60e51b81526020600482015260136024820152725573657220616c72656164792065786973747360681b604482015260640161012e565b6040805180820190915260068152652237b1ba37b960d11b6020918201528151908201207f81801538196f6575c6900044ae3429ef092e7ad29a7f4da69ed7f897d69f575914806104e8575060408051808201909152600781526614185d1a595b9d60ca1b6020918201528151908201207f675bc9802ff0994bbcafe826bffd0f15ec0a3ec17fd0cfbe035a08cbededf8a3145b6105285760405162461bcd60e51b8152602060048201526011602482015270496e76616c69642075736572207479706560781b604482015260640161012e565b6040805160608101825283815260208101839052338183015290516000906105519085906107ef565b9081526020016040518091039020600082015181600001908051906020019061057b9291906105fc565b50602082810151805161059492600185019201906105fc565b5060409182015160029190910180546001600160a01b0319166001600160a01b03909216919091179055517ff8dd90a0a9a50696bb466ea2ba7b33b470aa5994f5d1d613d94d3eac8129d78d906105f09084908490339061080b565b60405180910390a15050565b828054610608906108d4565b90600052602060002090601f01602090048101928261062a5760008555610670565b82601f1061064357805160ff1916838001178555610670565b82800160010185558215610670579182015b82811115610670578251825591602001919060010190610655565b5061067c929150610680565b5090565b5b8082111561067c5760008155600101610681565b600082601f8301126106a657600080fd5b813567ffffffffffffffff808211156106c1576106c161090f565b604051601f8301601f19908116603f011681019082821181831017156106e9576106e961090f565b8160405283815286602085880101111561070257600080fd5b836020870160208301376000602085830101528094505050505092915050565b60006020828403121561073457600080fd5b813567ffffffffffffffff81111561074b57600080fd5b61075784828501610695565b949350505050565b6000806040838503121561077257600080fd5b823567ffffffffffffffff8082111561078a57600080fd5b61079686838701610695565b935060208501359150808211156107ac57600080fd5b506107b985828601610695565b9150509250929050565b600081518084526107db8160208601602086016108a4565b601f01601f19169290920160200192915050565b600082516108018184602087016108a4565b9190910192915050565b60608152600061081e60608301866107c3565b828103602084015261083081866107c3565b91505060018060a01b0383166040830152949350505050565b60208152600082516060602084015261086560808401826107c3565b90506020840151601f1984830301604085015261088282826107c3565b604095909501516001600160a01b031660609490940193909352509192915050565b60005b838110156108bf5781810151838201526020016108a7565b838111156108ce576000848401525b50505050565b600181811c908216806108e857607f821691505b6020821081141561090957634e487b7160e01b600052602260045260246000fd5b50919050565b634e487b7160e01b600052604160045260246000fdfea2646970667358221220ef7bd5819f9ff8986f96ad3934a28144115488ea649bab5de4e26761a70d03ce64736f6c63430008070033",
  "immutableReferences": {},
  "source": "// SPDX-License-Identifier: MIT\r\npragma solidity ^0.8.0;\r\n\r\ncontract UserManagement {\r\n    struct User {\r\n        string userId;\r\n        string userType; // \"Doctor\" or \"Patient\"\r\n        address wallet;\r\n    }\r\n\r\n    mapping(string => User) public users; // Mapping of userId to User\r\n\r\n    event UserCreated(string userId, string userType, address wallet);\r\n\r\n    function createUser(string memory userId, string memory userType) public {\r\n        require(bytes(users[userId].userId).length == 0, \"User already exists\");\r\n        require(\r\n            keccak256(bytes(userType)) == keccak256(bytes(\"Doctor\")) ||\r\n            keccak256(bytes(userType)) == keccak256(bytes(\"Patient\")),\r\n            \"Invalid user type\"\r\n        );\r\n\r\n        users[userId] = User(userId, userType, msg.sender);\r\n        emit UserCreated(userId, userType, msg.sender);\r\n    }\r\n\r\n    function getUser(string memory userId) public view returns (User memory) {\r\n        require(bytes(users[userId].userId).length > 0, \"User does not exist\");\r\n        return users[userId];\r\n    }\r\n}\r\n",
  "sourcePath": "C:\\Users\\kriti\\my-blockchain\\smart contracts\\contracts\\UserManagement.sol",
  "compiler": {
    "name": "solc",
    "version": "0.8.7+commit.e28d00a7.Emscripten.clang"
  },
  "schemaVersion": "3.4.16",
  "updatedAt": "2024-12-11T03:30:53.225Z",
  "networkType": "ethereum",
  "devdoc": {
    "kind": "dev",
    "methods": {},
    "version": 1
  },
  "userdoc": {
    "kind": "user",
    "methods": {},
    "version": 1
  }
}