{
  "contractName": "UserManagement",
  "abi": [
    {
      "anonymous": false,
      "inputs": [
        {
          "indexed": false,
          "internalType": "string",
          "name": "userId",
          "type": "string"
        },
        {
          "indexed": false,
          "internalType": "string",
          "name": "userType",
          "type": "string"
        },
        {
          "indexed": false,
          "internalType": "address",
          "name": "wallet",
          "type": "address"
        }
      ],
      "name": "UserCreated",
      "type": "event"
    },
    {
      "inputs": [
        {
          "internalType": "string",
          "name": "",
          "type": "string"
        }
      ],
      "name": "users",
      "outputs": [
        {
          "internalType": "string",
          "name": "userId",
          "type": "string"
        },
        {
          "internalType": "string",
          "name": "userType",
          "type": "string"
        },
        {
          "internalType": "address",
          "name": "wallet",
          "type": "address"
        }
      ],
      "stateMutability": "view",
      "type": "function"
    },
    {
      "inputs": [
        {
          "internalType": "string",
          "name": "userId",
          "type": "string"
        },
        {
          "internalType": "string",
          "name": "userType",
          "type": "string"
        }
      ],
      "name": "createUser",
      "outputs": [],
      "stateMutability": "nonpayable",
      "type": "function"
    },
    {
      "inputs": [
        {
          "internalType": "string",
          "name": "userId",
          "type": "string"
        }
      ],
      "name": "getUser",
      "outputs": [
        {
          "components": [
            {
              "internalType": "string",
              "name": "userId",
              "type": "string"
            },
            {
              "internalType": "string",
              "name": "userType",
              "type": "string"
            },
            {
              "internalType": "address",
              "name": "wallet",
              "type": "address"
            }
          ],
          "internalType": "struct UserManagement.User",
          "name": "",
          "type": "tuple"
        }
      ],
      "stateMutability": "view",
      "type": "function"
    }
  ],
  "bytecode": "0x608060405234801561000f575f80fd5b50610f178061001d5f395ff3fe608060405234801561000f575f80fd5b506004361061003f575f3560e01c806331feb67114610043578063689e1c031461007357806387b162b5146100a5575b5f80fd5b61005d60048036038101906100589190610803565b6100c1565b60405161006a9190610957565b60405180910390f35b61008d60048036038101906100889190610803565b6102d9565b60405161009c939291906109ce565b60405180910390f35b6100bf60048036038101906100ba9190610a11565b610441565b005b6100c9610680565b5f80836040516100d99190610ac1565b90815260200160405180910390205f0180546100f490610b04565b905011610136576040517f08c379a000000000000000000000000000000000000000000000000000000000815260040161012d90610b7e565b60405180910390fd5b5f826040516101459190610ac1565b90815260200160405180910390206040518060600160405290815f8201805461016d90610b04565b80601f016020809104026020016040519081016040528092919081815260200182805461019990610b04565b80156101e45780601f106101bb576101008083540402835291602001916101e4565b820191905f5260205f20905b8154815290600101906020018083116101c757829003601f168201915b505050505081526020016001820180546101fd90610b04565b80601f016020809104026020016040519081016040528092919081815260200182805461022990610b04565b80156102745780601f1061024b57610100808354040283529160200191610274565b820191905f5260205f20905b81548152906001019060200180831161025757829003601f168201915b50505050508152602001600282015f9054906101000a900473ffffffffffffffffffffffffffffffffffffffff1673ffffffffffffffffffffffffffffffffffffffff1673ffffffffffffffffffffffffffffffffffffffff16815250509050919050565b5f818051602081018201805184825260208301602085012081835280955050505050505f91509050805f01805461030f90610b04565b80601f016020809104026020016040519081016040528092919081815260200182805461033b90610b04565b80156103865780601f1061035d57610100808354040283529160200191610386565b820191905f5260205f20905b81548152906001019060200180831161036957829003601f168201915b50505050509080600101805461039b90610b04565b80601f01602080910402602001604051908101604052809291908181526020018280546103c790610b04565b80156104125780601f106103e957610100808354040283529160200191610412565b820191905f5260205f20905b8154815290600101906020018083116103f557829003601f168201915b505050505090806002015f9054906101000a900473ffffffffffffffffffffffffffffffffffffffff16905083565b5f80836040516104519190610ac1565b90815260200160405180910390205f01805461046c90610b04565b9050146104ae576040517f08c379a00000000000000000000000000000000000000000000000000000000081526004016104a590610be6565b60405180910390fd5b6040518060400160405280600681526020017f446f63746f720000000000000000000000000000000000000000000000000000815250805190602001208180519060200120148061054157506040518060400160405280600781526020017f50617469656e7400000000000000000000000000000000000000000000000000815250805190602001208180519060200120145b610580576040517f08c379a000000000000000000000000000000000000000000000000000000000815260040161057790610c4e565b60405180910390fd5b60405180606001604052808381526020018281526020013373ffffffffffffffffffffffffffffffffffffffff168152505f836040516105c09190610ac1565b90815260200160405180910390205f820151815f0190816105e19190610e12565b5060208201518160010190816105f79190610e12565b506040820151816002015f6101000a81548173ffffffffffffffffffffffffffffffffffffffff021916908373ffffffffffffffffffffffffffffffffffffffff1602179055509050507ff8dd90a0a9a50696bb466ea2ba7b33b470aa5994f5d1d613d94d3eac8129d78d828233604051610674939291906109ce565b60405180910390a15050565b604051806060016040528060608152602001606081526020015f73ffffffffffffffffffffffffffffffffffffffff1681525090565b5f604051905090565b5f80fd5b5f80fd5b5f80fd5b5f80fd5b5f601f19601f8301169050919050565b7f4e487b71000000000000000000000000000000000000000000000000000000005f52604160045260245ffd5b610715826106cf565b810181811067ffffffffffffffff82111715610734576107336106df565b5b80604052505050565b5f6107466106b6565b9050610752828261070c565b919050565b5f67ffffffffffffffff821115610771576107706106df565b5b61077a826106cf565b9050602081019050919050565b828183375f83830152505050565b5f6107a76107a284610757565b61073d565b9050828152602081018484840111156107c3576107c26106cb565b5b6107ce848285610787565b509392505050565b5f82601f8301126107ea576107e96106c7565b5b81356107fa848260208601610795565b91505092915050565b5f60208284031215610818576108176106bf565b5b5f82013567ffffffffffffffff811115610835576108346106c3565b5b610841848285016107d6565b91505092915050565b5f81519050919050565b5f82825260208201905092915050565b5f5b83811015610881578082015181840152602081019050610866565b5f8484015250505050565b5f6108968261084a565b6108a08185610854565b93506108b0818560208601610864565b6108b9816106cf565b840191505092915050565b5f73ffffffffffffffffffffffffffffffffffffffff82169050919050565b5f6108ed826108c4565b9050919050565b6108fd816108e3565b82525050565b5f606083015f8301518482035f86015261091d828261088c565b91505060208301518482036020860152610937828261088c565b915050604083015161094c60408601826108f4565b508091505092915050565b5f6020820190508181035f83015261096f8184610903565b905092915050565b5f82825260208201905092915050565b5f6109918261084a565b61099b8185610977565b93506109ab818560208601610864565b6109b4816106cf565b840191505092915050565b6109c8816108e3565b82525050565b5f6060820190508181035f8301526109e68186610987565b905081810360208301526109fa8185610987565b9050610a0960408301846109bf565b949350505050565b5f8060408385031215610a2757610a266106bf565b5b5f83013567ffffffffffffffff811115610a4457610a436106c3565b5b610a50858286016107d6565b925050602083013567ffffffffffffffff811115610a7157610a706106c3565b5b610a7d858286016107d6565b9150509250929050565b5f81905092915050565b5f610a9b8261084a565b610aa58185610a87565b9350610ab5818560208601610864565b80840191505092915050565b5f610acc8284610a91565b915081905092915050565b7f4e487b71000000000000000000000000000000000000000000000000000000005f52602260045260245ffd5b5f6002820490506001821680610b1b57607f821691505b602082108103610b2e57610b2d610ad7565b5b50919050565b7f5573657220646f6573206e6f74206578697374000000000000000000000000005f82015250565b5f610b68601383610977565b9150610b7382610b34565b602082019050919050565b5f6020820190508181035f830152610b9581610b5c565b9050919050565b7f5573657220616c726561647920657869737473000000000000000000000000005f82015250565b5f610bd0601383610977565b9150610bdb82610b9c565b602082019050919050565b5f6020820190508181035f830152610bfd81610bc4565b9050919050565b7f496e76616c6964207573657220747970650000000000000000000000000000005f82015250565b5f610c38601183610977565b9150610c4382610c04565b602082019050919050565b5f6020820190508181035f830152610c6581610c2c565b9050919050565b5f819050815f5260205f209050919050565b5f6020601f8301049050919050565b5f82821b905092915050565b5f60088302610cc87fffffffffffffffffffffffffffffffffffffffffffffffffffffffffffffffff82610c8d565b610cd28683610c8d565b95508019841693508086168417925050509392505050565b5f819050919050565b5f819050919050565b5f610d16610d11610d0c84610cea565b610cf3565b610cea565b9050919050565b5f819050919050565b610d2f83610cfc565b610d43610d3b82610d1d565b848454610c99565b825550505050565b5f90565b610d57610d4b565b610d62818484610d26565b505050565b5b81811015610d8557610d7a5f82610d4f565b600181019050610d68565b5050565b601f821115610dca57610d9b81610c6c565b610da484610c7e565b81016020851015610db3578190505b610dc7610dbf85610c7e565b830182610d67565b50505b505050565b5f82821c905092915050565b5f610dea5f1984600802610dcf565b1980831691505092915050565b5f610e028383610ddb565b9150826002028217905092915050565b610e1b8261084a565b67ffffffffffffffff811115610e3457610e336106df565b5b610e3e8254610b04565b610e49828285610d89565b5f60209050601f831160018114610e7a575f8415610e68578287015190505b610e728582610df7565b865550610ed9565b601f198416610e8886610c6c565b5f5b82811015610eaf57848901518255600182019150602085019450602081019050610e8a565b86831015610ecc5784890151610ec8601f891682610ddb565b8355505b6001600288020188555050505b50505050505056fea26469706673582212209b48d7527487e10c89cf20c468f140f64ece1689143e7d91ac11acf58609872164736f6c63430008150033",
  "immutableReferences": {},
  "source": "// SPDX-License-Identifier: MIT\r\npragma solidity ^0.8.0;\r\n\r\ncontract UserManagement {\r\n    struct User {\r\n        string userId;\r\n        string userType; // \"Doctor\" or \"Patient\"\r\n        address wallet;\r\n    }\r\n\r\n    mapping(string => User) public users; // Mapping of userId to User\r\n\r\n    event UserCreated(string userId, string userType, address wallet);\r\n\r\n    function createUser(string memory userId, string memory userType) public {\r\n        require(bytes(users[userId].userId).length == 0, \"User already exists\");\r\n        require(\r\n            keccak256(bytes(userType)) == keccak256(bytes(\"Doctor\")) ||\r\n            keccak256(bytes(userType)) == keccak256(bytes(\"Patient\")),\r\n            \"Invalid user type\"\r\n        );\r\n\r\n        users[userId] = User(userId, userType, msg.sender);\r\n        emit UserCreated(userId, userType, msg.sender);\r\n    }\r\n\r\n    function getUser(string memory userId) public view returns (User memory) {\r\n        require(bytes(users[userId].userId).length > 0, \"User does not exist\");\r\n        return users[userId];\r\n    }\r\n}\r\n",
  "sourcePath": "C:\\Users\\kriti\\my-blockchain\\smart contracts\\contracts\\UserManagement.sol",
  "compiler": {
    "name": "solc",
    "version": "0.8.21+commit.d9974bed.Emscripten.clang"
  },
  "schemaVersion": "3.4.16",
  "updatedAt": "2024-12-11T03:21:10.820Z",
  "devdoc": {
    "kind": "dev",
    "methods": {},
    "version": 1
  },
  "userdoc": {
    "kind": "user",
    "methods": {},
    "version": 1
  }
}